:020000040800F2
:10000000C032002065180008910200089302000821
:1000100095020008970200089902000800000000FD
:10002000000000000000000000000000DD010008EA
:100030009B0200080000000021020008791000085F
:100040007F1800087F1800087F1800087F18000834
:100050007F1800087F1800087F1800087F18000824
:100060007F1800087F1800087F1800087F18000814
:100070007F1800087F1800087F1800087F18000804
:100080007F1800087F1800087F1800087F180008F4
:10009000CD1600087F1800087F1800087F18000898
:1000A0007F1800087F1800087F1800087F180008D4
:1000B0007F180008D71100087F1800087F18000873
:1000C0007F1800087F1800087F1800087F180008B4
:1000D0007F180008C11200087F1800087F18000868
:1000E0007F1800087F1800087F1800087F18000894
:1000F0007F1800087F1800087F1800087F18000884
:100100007F1800087F1800087F1800087F18000873
:100110007F1800087F1800087F1800087F18000863
:100120007F1800087F1800087F1800087F18000853
:1001300000F002F800F042F80AA090E8000C8244B7
:100140008344AAF10107DA4501D100F037F8AFF294
:10015000090EBAE80F0013F0010F18BFFB1A43F0A5
:10016000010318479C660000BC660000103A24BFDB
:1001700078C878C1FAD8520724BF30C830C144BF0C
:1001800004680C607047000000230024002500264E
:10019000103A28BF78C1FBD8520728BF30C148BFEA
:1001A0000B607047752906F00581632906F0798296
:1001B000002070471FB51FBD10B510BD06F0E8FA4E
:1001C0001146FFF7F7FF00F054F806F006FB03B402
:1001D000FFF7F2FF03BC01F01BF80000224B196887
:1001E0000868B0E8F00F80F30988BFF36F8F4FF015
:1001F000000080F311884EF00D0E704700000000E3
:1002000006480068006880F3088862B661B6BFF3EC
:100210004F8FBFF36F8F00DF00BF00BF08ED00E01E
:10022000EFF30980BFF36F8F0F4B1A6820E9F00FCF
:10023000106008B54FF0500080F31188BFF34F8F66
:10024000BFF36F8F04F0E5FB4FF0000080F31188DF
:10025000BDE8084019680868B0E8F00F80F3098825
:10026000BFF36F8F704700BF40000020EFF30580A1
:10027000704710B54FF4407001F014FB00F0ECFE35
:1002800000F0C3F800F0C9FE04F008FD002010BD26
:100290007047FEE7FEE7FEE7FEE770470CB5002279
:1002A0004C4800920192016841F4803101604FF4A2
:1002B000A063016801F4003101910099491C00918B
:1002C000019911B900999942F3D10168890333D595
:1002D0000121019140490A6842F010020A600A684F
:1002E00022F003020A600A6842F002020A604168D2
:1002F000416041684160416841F48061416041680A
:1003000021F47C114160416841F4E81141600168C9
:1003100041F08071016001688901FCD5416821F0DC
:1003200003014160416841F0020141604168C1F34D
:1003300081010229FAD10CBD01920CBD254810B5EE
:10034000016841F0010101604168244A11404160A7
:100350000168234A11400160016821F48021016095
:10036000416821F4FE0141604FF41F018160FFF7F5
:1003700095FF1C494FF00060086010BD154A10B58C
:100380005068194B10F00C01184803D0042901D013
:10039000082901D0036012E05168536801F470111C
:1003A0004FF0020413F4803F04EB914102D05368F4
:1003B0009B0301D50E4B00E00B4B59430160516884
:1003C0000A4AC1F30311121D515C0268CA4002605F
:1003D00010BD000000100240002002400000FFF8A5
:1003E000FFFFF6FE08ED00E000127A00000000209A
:1003F00000093D004FF47A740A4A0821122001F0E6
:1004000073F9204604F030FAF6E71CB5002101200C
:100410000B46CDE90001020203A1AFF2270004F070
:1004200069F81CBD140000204C65645F5461736B57
:10043000000000002DE9FC41FEA100F5C060D1E9FB
:100440000021CDE900216A460821804601F04CF9DF
:10045000052000F051FE06202B2500248DF8040015
:100460008DF8005040268DF8016060278DF805401A
:100470008DF802708DF806408DF803408DF8074026
:100480006A460821404601F02FF9052000F034FEAD
:1004900007208DF804008DF800508DF801608DF86C
:1004A00005408DF802708DF806408DF803408DF8F8
:1004B00007406A460821404601F016F9052000F081
:1004C0001BFE0F208DF804008DF800508DF80160A0
:1004D0008DF805408DF802708DF806408DF80340C8
:1004E0008DF807406A460821404601F0FDF80520D6
:1004F00000F002FE0020BDE8FC8101209AE71CB557
:10050000CEA100F5C060D1E90021CDE900216A4605
:10051000082101F0E9F81CBD1CB5CAA100F5C060B6
:10052000D1E90021CDE900216A46082101F0DCF87B
:100530001CBD2DE9FC41C5A100F5C060D1E9002139
:10054000CDE900216A460821074601F0CDF80520D3
:1005500000F0D2FD23208DF80000002410208DF83B
:1005600004008DF8054040208DF806008DF801400C
:10057000162660208DF8026001258DF807008DF8A1
:1005800003506A460821384601F0AEF8052000F015
:10059000B3FD2F208DF800008DF804508DF8014038
:1005A0008DF805408DF802608DF806408DF8034007
:1005B0008DF807406A460821384601F095F8052075
:1005C00000F09AFD002096E72DE9FC412F268DF8DA
:1005D000006001258DF8015014218DF802100221D0
:1005E0008DF80310FE218DF8041000248DF80540CD
:1005F0008DF8064000F5C0608DF807406A46082176
:10060000804601F071F8052000F076FD23208DF87A
:10061000000020208DF8040003208DF80500FF2045
:100620008DF806008DF80150162760208DF80270B5
:100630008DF807008DF803506A460821404601F006
:1006400053F8052000F058FD8DF800608DF8045037
:100650008DF801508DF805408DF802708DF8064038
:100660008DF803408DF807406A460821404601F0A6
:100670003BF8052000F040FD00203CE72DE9FC4759
:100680002F278DF8007002258DF8015014218DF868
:100690000210FE218DF8041000248DF805408DF81D
:1006A000064000F5C0608DF803508DF807406A469B
:1006B0000821814601F018F8052000F01DFD2320D7
:1006C0008DF80000202001268DF804008DF80560CB
:1006D0007A208DF806008DF801504FF01608602042
:1006E0008DF802808DF807008DF803606A460821B6
:1006F000484600F0F9FF052000F0FEFC8DF8007080
:100700008DF804608DF801508DF805408DF8028059
:100710008DF806408DF803408DF807406A460821A1
:10072000484600F0E1FF052000F0E6FC0020BDE8AF
:10073000FC872DE9FC472F268DF8006003258DF8F6
:10074000015014218DF80210FE218DF804100024B0
:100750008DF8054002278DF8064000F5C0608DF841
:1007600003708DF807406A460821824600F0BCFFFE
:10077000052000F0C1FC23208DF8000020208DF81A
:1007800004008DF805707A208DF806008DF8015070
:100790004FF0160960208DF802904FF001088DF897
:1007A00007008DF803806A460821504600F09CFF40
:1007B000052000F0A1FC8DF800608DF804808DF814
:1007C00001508DF805408DF802908DF806408DF8A7
:1007D00003408DF807406A460821504600F084FF28
:1007E000052000F089FC0020A1E72DE9FC412F261F
:1007F0008DF8006000248DF8014018258DF8025016
:1008000002218DF80310FF218DF804108DF80540AA
:100810008DF8064000F5C0608DF807406A46082153
:10082000804600F061FF052000F066FC2B208DF86B
:1008300000000FE02F606000030000002B1020007C
:10084000010000002B092000010000002F0014020D
:10085000FE0000008DF801408DF8025005208DF853
:100860000300C8208DF804008DF805408DF806407F
:100870008DF807406A460821404600F035FF052004
:1008800000F03AFC23208DF8000020208DF80400B1
:1008900003208DF805006C208DF806008DF80140CE
:1008A0001A2760208DF8027001258DF807008DF859
:1008B00003506A460821404600F016FF052000F06C
:1008C0001BFC8DF800608DF804508DF801408DF808
:1008D00005408DF802708DF806408DF803408DF8C4
:1008E00007406A460821404600F0FEFE052000F061
:1008F00003FC0020FFE52DE9FC412F268DF8006068
:1009000001258DF8015018278DF8027002218DF80D
:100910000310FF218DF8041000248DF805408DF898
:10092000064000F5C0608DF807406A460821804601
:1009300000F0DAFE052000F0DFFB2B208DF8000030
:100940008DF801508DF8027005208DF80300C82045
:100950008DF804008DF805408DF806408DF80740AD
:100960006A460821404600F0BFFE052000F0C4FBA7
:1009700023208DF8000020208DF8040003208DF83E
:10098000050077208DF806008DF801501A276020A9
:100990008DF802708DF807008DF803506A46082123
:1009A000404600F0A1FE052000F0A6FB8DF8006097
:1009B0008DF804508DF801508DF805408DF80270C7
:1009C0008DF806408DF803408DF807406A460821EF
:1009D000404600F089FE052000F08EFB00208AE5ED
:1009E0002DE9FE4FFF214FF02F0B8DF804108DF8ED
:1009F00000B0022500248DF8015018268DF805401E
:100A00008DF802608DF8064000F5C0608DF8035047
:100A10008DF807406A460821029000F065FE052027
:100A200000F06AFB2B208DF800008DF801508DF846
:100A3000026005208DF80300C8208DF804008DF8B1
:100A400005408DF806408DF807406A460821029857
:100A500000F04AFE052000F04FFB232701204FF055
:100A600020088DF800708DF804808DF801501A264A
:100A70008DF805008DF802604FF064098DF80300D1
:100A80008DF806904FF0600A8DF807A06A4608219D
:100A9000029800F029FE052000F02EFB8DF8007072
:100AA0008DF804808DF801508DF805508DF80260A6
:100AB0008DF806908DF803508DF807A06A4608213E
:100AC000029800F011FE052000F016FB8DF800B032
:100AD0008DF804508DF801508DF805408DF80260B6
:100AE0008DF806408DF803408DF807406A460821CE
:100AF000029800F0F9FD052000F0FEFA0020BDE8A4
:100B0000FE8F2DE9FC474FF02F088DF8008003255C
:100B10008DF8015018268DF8026002218DF803101F
:100B2000FE218DF8041000248DF805408DF8064054
:100B300000F5C0608DF807406A460821814600F044
:100B4000D3FD052000F0D8FA2B208DF80000E82016
:100B50008DF804008DF801508DF805508DF8026075
:100B60008DF806408DF803508DF807406A4608213D
:100B7000484600F0B9FD052000F0BEFA23208DF8AC
:100B8000000020208DF804008DF805403F208DF8EE
:100B900006008DF801501A2660208DF802600127AA
:100BA0008DF807008DF803706A460821484600F06A
:100BB0009BFD052000F0A0FA8DF800808DF80470F0
:100BC0008DF801508DF805408DF802608DF80640D3
:100BD0008DF803408DF807406A460821484600F02A
:100BE00083FD052000F088FA0020A0E508B56A46DC
:100BF0008DF800008DF801100221002000F074FD36
:100C000008BD38B506218DF80010002400F50070ED
:100C10008DF801406A460221054600F065FD072077
:100C20008DF800008DF801406A460221284600F048
:100C30005BFD052000F060FA0F208DF800008DF8B4
:100C400001406A460221284600F04EFD38BD2DE9DC
:100C5000FC5FAFF22041D1E90021CDE9002100F590
:100C6000C0606A460821834600F03EFD052000F082
:100C700043FA232564278DF800504FF083098DF83F
:100C8000047000248DF8019060268DF805408DF8E1
:100C900002604FF001088DF806408DF803808DF852
:100CA00007406A460821584600F01EFD052000F066
:100CB00023FA8DF800508DF804708DF801908DF8AE
:100CC00005408DF802604FF0020A8DF806408DF85D
:100CD00003A08DF807406A460821584600F004FD3D
:100CE000052000F009FA8DF800504FF084098DF8C6
:100CF00004708DF801908DF805408DF802608DF834
:100D000006408DF803808DF807406A460821584652
:100D100000F0EAFC052000F0EFF98DF800508DF8A6
:100D200004708DF801908DF805408DF802608DF803
:100D300006408DF803A08DF807406A460821584602
:100D400000F0D2FC052000F0D7F92B208DF8000030
:100D50000F208DF8010020208DF804808DF802000E
:100D60008DF805408DF806408DF803408DF807405A
:100D70006A460821584600F0B7FC052000F0BCF98F
:100D80000020BDE8FC9F38B564218DF800100022DA
:100D90008DF801208DF802108DF8032000F54070C9
:100DA0006A460421054600F09FFC41F28834204643
:100DB00000F0A2F99C228DF80020FF218DF801108F
:100DC0008DF802208DF803106A460421284600F0B1
:100DD0008BFC204600F090F938BD1CB507A100F54A
:100DE000C060D1E90021CDE900216A46042100F06C
:100DF0007BFC052000F080F91CBD000023FF600390
:100E000032003200704730B58A4B00248A495A7844
:100E1000002A7DD01A788854521CD0B21870192834
:100E20007FD3B1F80100C0F30A02A1F122000280D1
:100E30008A78D508CA7845EA4215C5F30A0545807F
:100E40000D79920942EA85054A7945EA8225C5F37A
:100E50000A05858055088A7945EAC215C5F30A0551
:100E6000C5801509CA7945EA0215C5F30A05058149
:100E70000D7AD20942EA45054A7A45EA4225C5F388
:100E80000A05458195088A7A45EA8215C5F30A055F
:100E90008581CD7A520942EAC502C2818A89C2F3AC
:100EA0000A0202824A7BD5088A7B45EA4215C5F3CD
:100EB0000A054582CD7B920942EA85050A7C45EA0E
:100EC0008225C5F30A05858255084A7C45EAC21584
:100ED000C5F30A05C58215098A7C45EA0215C5F3E2
:100EE0000A050583CD7CD20942EA45050A7D45EA1B
:100EF0004225C5F30A05458395084A7D45EA8215D2
:100F0000C5F30A0585838D7D520942EAC50201E0D9
:100F100008E006E0C283C97DC1F3C00180F820105B
:100F20005C7030BD0F28FCD101225A7008701A7015
:100F300030BD7047404840F2DC512238B0F90A0019
:100F4000884201DD012000E000203A4988707047A6
:100F50001CB53AA300F5C060D3E90043CDE90043D6
:100F60008DF80410090A8DF805108DF80620110A75
:100F70008DF807106A46082100F0B6FB052000F046
:100F8000BBF81CBDFFF7B9FA2B4E4FF4FA75223EA1
:100F90006C4296F8200030B1002211460120FFF784
:100FA000D7FF642036E03088B188A0F2DC5000B270
:100FB000A1F2DC5100F11D030AB23B2B00D200204C
:100FC00002F11D013B2900D20022A84201DD284682
:100FD00002E0A04200DA2046AA4201DD2A4602E0F1
:100FE000A24200DA22461118101A02B209B22846AB
:100FF000814201DD294602E0A14200DA2146824217
:1010000001DD024602E0A24200DA22460120FFF79B
:101010009FFF142003F028FCBBE71CB50021012032
:101020000B46CDE90001020206A1AFF2A70003F0D2
:1010300061FA1CBD1C000020E200002023FF6003B9
:101040000000000052656D6F7465436F6E74726FBF
:101050006C5F5461736B000010B500F051F900F043
:1010600015F8044800F0DEF800F072F8BDE8104012
:1010700000F0C8BAA086010010B504F05EF801289F
:1010800003D0BDE8104005F0D0B810BD10B5042065
:1010900000F04DFC2B482C492C4A0068B0FBF1F3C2
:1010A000B0FBF1F14FF47A7041431370012050808E
:1010B0004FF0E020026942F00202026141610169E1
:1010C00041F00101016110BD70B54FF0E025002134
:1010D0006C691E4AAB6912785043AA699A42FCD0E7
:1010E00002D2A3EB020302E0A4EB0206334419444C
:1010F00013468142F1D370BD70B5044604F01DF86B
:1011000001280CD0114D6888844203D3B4FBF0F061
:1011100003F0AAFB6888B4FBF0F100FB11444FF424
:101120007A706043BDE87040CEE770B50546002494
:101130004FF47A7603E03046FFF7C6FF641CAC42FA
:10114000F9D370BD0000002040420F0020000020B5
:1011500008B50121102000F03CFE4FF40050ADF81E
:10116000000010208DF8030003208DF8020069466E
:10117000014800F046FC08BD001001407FB50D4657
:1011800004460121022000F02DFEADF80440ADF828
:1011900000500024184DADF80640ADF802406946F5
:1011A000284601F091F801221146284601F049FB3A
:1011B0001D218DF80C1004208DF80D008DF80E40C7
:1011C00001208DF80F0003A800F071FB01212846D3
:1011D00001F022FB7FBD10B5074C0121204601F034
:1011E00044FD012802D105A005F066F82046BDE8BF
:1011F0001040012101F045BD0004004054494D3329
:10120000CAE4B3F62E2E2E2E2E2E2E0D0A0000002E
:10121000704738490A885206FCD5364AC1B2121DB9
:1012200011807047F0B5074687B0012144F20400F1
:1012300000F0CFFD4FF40070ADF8100003248DF8DE
:10124000124018202C4E8DF8130004A9304600F0EF
:10125000D8FB3515ADF8105004208DF8130004A903
:10126000304600F0CEFB25208DF814008DF8154097
:101270008DF8164001208DF8170005A800F017FB27
:10128000A800ADF804004000ADF806000020ADF85D
:101290000C00ADF808500C20164CADF80A00009771
:1012A0006946204600F014FE012240F225512046F6
:1012B00000F08BFE0121204600F07DFE07B0F0BD5E
:1012C00070B50C4C40F225552946204600F034FFFD
:1012D00000280DD0204600F0C8FE0849C0B20870B2
:1012E000FFF791FD29462046BDE8704000F043BF5E
:1012F00070BD0000003801400008014028000020B7
:1013000030B587B001210C2000F063FD4FF480540C
:10131000ADF8144010208DF817000320B24D8DF861
:10132000160005A9284600F06CFB2146284600F06F
:10133000D2FB0C20AD4CADF8140005A9204600F0FE
:1013400060FB0221ADF8141028218DF8171005A9B3
:10135000204600F056FB0E21204600F0BEFB00F0B8
:1013600037FAA34D0021284601F02EFD0024ADF8E8
:1013700000404FF48270ADF80200ADF808406815E7
:10138000ADF80A001820ADF80C000720ADF80440B5
:10139000ADF81000ADF80640ADF80E40694628469D
:1013A00001F096FC0121284601F00EFD9148C0F89D
:1013B00088410121C0F88C1107B030BD2DE9F04102
:1013C0008C4F0E4600211546C7F88C1100F0DAF953
:1013D0008046002405E0FF2000F0D4F93055641C5D
:1013E000E4B2AC42F7D30120C7F88C014046BDE817
:1013F000F0812DE9F0417F4F0D4600211646C7F8D8
:101400008C1100F0BFF98046002405E015F8010BAF
:1014100000F0B8F9641CE4B2B442F7D30120C7F875
:101420008C014046E3E71CB573A0D0E90010CDE97C
:101430000010082000F003FA052269463020FFF76B
:10144000D8FF052269461020FFF7B8FF0020694643
:101450000A5CA52A03D1401CC0B20528F8D3052890
:1014600001D001201CBD00201CBD70B50D46614C93
:1014700001460020C4F88C01084604F5C67400F04B
:1014800081F90646284600F07DF9012020603046AB
:1014900070BD10B5574C0021C4F88C1104F5C6740A
:1014A00000F070F9FF2000F06DF90121216010BDFE
:1014B00070B50546102000F0C2F94E4C0020C4F86B
:1014C000880120222946A020FFF793FF0120C4F8BD
:1014D0008801D4F804010028FBD10720FFF7D9FFC9
:1014E000044601462720FFF7C0FFE00605D5FF218F
:1014F000E120FFF7BAFF102070BDA00601D5202023
:1015000070BDFF2070BD70B50546102000F097F942
:101510000720FFF7BEFF044601462720FFF7A5FF7F
:1015200060060AD5202229466120FFF747FFFF21E8
:10153000E220FFF79AFF002070BD012070BD10B5BA
:101540002C4C0020C4F8880105222D492A2004F5DE
:10155000C474FFF74EFF01212120FFF786FF012110
:101560002220FFF782FF28212520FFF77EFF202180
:101570003120FFF77AFF0F212620FFF776FF0F219A
:101580002020FFF772FF0120206010BD10B5194C1C
:101590000020C4F888011A490522491F302004F5AB
:1015A000C474FFF726FF052215492A20FFF721FF03
:1015B00001212120FFF759FF01212220FFF755FFCC
:1015C0001A212420FFF751FF28212520FFF74DFF86
:1015D0000F212620FFF749FF0E212020FFF745FFAE
:1015E0000120206010BD0000000C014000080140F7
:1015F0000030014000002142A5A5A5A5A5000000DE
:10160000F967000870B58AB00121052000F0E1FB00
:101610000121480600F0E6FB4FF40060ADF81C0025
:101620004820564C8DF81F0007A9204600F0E9F924
:10163000A114ADF81C1018218DF81F1003218DF88E
:101640001E1007A9204600F0DCF900248DF8164092
:101650008DF8174002208DF814008DF812408DF897
:1016600013400C20464E0125ADF8100006948DF86D
:10167000155004A9304601F054FC8DF80A408DF84D
:101680000B408DF80C50ADF80040ADF80440ADF8BB
:101690000240ADF80640ADF808408DF80D506846A0
:1016A00001F0B3FC01220221304601F0E9FE1420D2
:1016B0008DF8200006208DF821008DF822408DF84D
:1016C000235008A800F0F3F80AB070BD10B52C4CF8
:1016D00086B06A460021204601F0EFFD0221204637
:1016E00001F057FF06B010BDF0B585B00023CDE97D
:1016F00000038DF808308DF809308DF80A1068461F
:1017000004E0D45CC5185B1CEC729BB28B42F8D32E
:101710001B4F0146384601F033FD0646002440F6D3
:10172000FF7501E0641CA4B23146384601F087FD24
:1017300008B9AC42F6D3AC4202D3012005B0F0BDEB
:101740000020FBE730B50E4D044685B00021284649
:1017500001F016FE00280ED06A460021284601F04E
:10176000ACFD002168464218D27A6254491C08290F
:10177000F9D39DF80A0005B030BD00000008014013
:101780000064004070B506460024334D03E0641C3D
:10179000E4B2C82C0FD80221284601F081FB0028B2
:1017A000F5D03146284601F037FB002405E0641CE3
:1017B000E4B2C82C01D9002070BD0121284601F0F7
:1017C0006FFB0028F3D0284601F028FBC0B270BDA3
:1017D00038B5012141F2040000F0FBFAE020ADF839
:1017E000000018208DF8030003201C4C8DF8020027
:1017F0006946204600F005F9E021204600F06BF92B
:10180000174800214FF482720180428081800222B9
:10181000C280012202815202428138228281C1812A
:10182000072101820C4C0146204601F051FA0121AA
:10183000204601F0C9FAFF20FFF7A4FF38BD064992
:101840000A8822F038020A800A8802430A8008883F
:1018500040F040000880704700300140000801401F
:10186000FC0000200948804709480047FEE7FEE7E2
:10187000FEE7FEE7FEE7FEE7FEE7FEE7FEE7FEE740
:1018800004480549054A064B704700003D0300081F
:1018900031010008C02C0020C0320020C02E0020E2
:1018A000C02E00202849084328490860704730B5F9
:1018B0000F23C27801780125F2B1244A126801F1A0
:1018C000E02102F4E062C2F5E062120AC2F104040F
:1018D000D3404278A24084781C401443220181F80E
:1018E0000024007800F01F018D404009800000F1C5
:1018F000E020C0F8005130BD01F01F0085404809CC
:10190000800000F1E020C0F8805130BD104A114045
:1019100001430E48001F016070470C4A121D002948
:10192000116801D0014300E08143116070474FF01E
:10193000E0210428086903D020F004000861704702
:1019400040F00400FAE700000000FA050CED00E0AA
:1019500080FFFF1F8F4910B5884206D10121042066
:1019600000F049FA002104203BE08B49884206D16F
:101970000121082000F03FFA0021082031E08749CA
:10198000884206D10121102000F035FA00211020F4
:1019900027E08349884206D10121202000F02BFA5C
:1019A000002120201DE07F49884206D101214020EE
:1019B00000F021FA0021402013E07B49884206D143
:1019C0000121802000F017FA0021802009E07749EA
:1019D00088420AD184150121204600F00CFA00212A
:1019E0002046BDE8104000F006BA10BD10B5012138
:1019F000084600F000FA0021BDE81040012000F088
:101A0000FAB9F0B5CC78002204F00F03E40601D552
:101A10008C7823430C784FF00F0C14F0FF0F4FF02D
:101A2000010E1BD005680E880EFA02F42640A6426D
:101A300010D196000CFA06F725EA070703FA06F517
:101A4000CE783D43282E02D0482E02D002E04461D9
:101A500000E00461521C082AE5D305600A88FF2AC9
:101A60001CD94468002202F108060EFA06F50E8819
:101A70002E40AE420ED196000CFA06F7BC4303FA94
:101A800006F7CE783C43282E00D14561CE78482E0B
:101A900000D10561521C082AE5D34460F0BD4FF621
:101AA000FF710180022181700421C17070470246DC
:101AB000002092680A4200D001207047806880B2FE
:101AC000704702460020D2680A4200D001207047C9
:101AD000C06880B2704701617047416170470AB1C8
:101AE0000161704741617047C160704741F48032C5
:101AF0008261816182618169806970472C4B10B578
:101B00001A684FF68074224042EA001008431860B9
:101B100010BD2849C8617047F0B5254C002801DA8E
:101B2000E36900E06368450D2E0185B2C0F30157FB
:101B3000B540C0F30342032F05D0C6020AD50326E1
:101B40009640B34307E023F07062636823F070634C
:101B5000636002E0AB4343F0706201B12A430028A6
:101B600001DAE261F0BD6260F0BD10B58A0721F0D4
:101B700003040F49120F21440F238C6893409C43A8
:101B80008C608B68904003438B6010BD0949C1F89D
:101B9000DC00704700080140000C014000100140CB
:101BA0000014014000180140001C014000200140C9
:101BB0000000014000002042A548016841F00101F9
:101BC00001604168A34A114041600168A24A114086
:101BD0000160016821F480210160416821F4FE0167
:101BE00041604FF41F018160704799490A6822F4EF
:101BF00080320A600A6822F480220A60B0F5803FD1
:101C000007D0B0F5802F03D1086840F4A020086009
:101C10007047086840F48030F9E70346002059090E
:101C20008B4A01290AD002290AD0516A03F01F0207
:101C3000012393400B4200D0012070471168F5E763
:101C4000116AF3E718B500204FF4A064009031202A
:101C5000FFF7E3FF0099491C0091A14201D0002841
:101C6000F5D03120FFF7D9FF002800D0012018BDA2
:101C7000774A116821F0F80141EAC000106070470E
:101C8000764908607047724B5A68084322F47C1208
:101C90001043586070477149086670476C4A516834
:101CA00021F003010143516070476948406800F02A
:101CB0000C007047664A516821F0F0010143516001
:101CC0007047634A516821F4E061014351607047F5
:101CD0005F4A516821F4605141EAC000506070478A
:101CE0005B4A0029517A01D0014300E081435172DF
:101CF00070475A49C1F8D8007047554A516821F4D5
:101D000040410143516070475149002281F8202031
:101D100081F82020012802D0042802D1052081F872
:101D2000200070474E490860704749490A6A0243DB
:101D30000A6270474A4944390860704730B5444ADE
:101D40005168484B11F00C0103D0042901D0082937
:101D500001D0036012E05168536801F470114FF034
:101D6000020413F4803F04EB914102D053689B03BB
:101D700001D53D4B00E03B4B5943016051680F23B7
:101D800003EA1111394B5C5C0168E1404160546821
:101D9000072505EA14241C5D21FA04F484605468C4
:101DA00005EAD4241B5DD940C1605268032303EACD
:101DB00092322E4B1B1F9A5CB1FBF2F1016130BDD8
:101DC000234A0029516901D0014300E08143516158
:101DD00070471F4A0029916901D0014300E0814307
:101DE000916170471A4A0029D16901D0014300E08E
:101DF0008143D1617047164A0029D16801D001435F
:101E000000E08143D1607047114A0029116901D077
:101E1000014300E081431161704711494039086076
:101E200070470E49C86470470949C871704708482F
:101E3000416A41F0807141627047054A01460020C5
:101E400092680A4200D001207047014988727047A9
:101E5000001002400000FFF8FFFFF6FE00004242C3
:101E60008004424200127A0000093D002D0000204B
:101E7000C44910B588420AD101218C032046FFF7DE
:101E8000BAFF2046BDE810400021FFF7B4BFBE49AD
:101E9000884202D101214C0410E0BC49884202D1A1
:101EA00001218C040AE0BA49884202D10121CC0404
:101EB00004E0B84988420AD101210C052046FFF709
:101EC000A3FF2046BDE810400021FFF79DBF10BDD5
:101ED00030B50446008A85B00D464CF6FF710840C7
:101EE000E98801432182A0894EF6F3110840A988B0
:101EF0002A8911436A8902431143A181A08A4FF6BE
:101F0000FF410840A9890143A1826846FFF716FFF7
:101F10009C48844201D1039800E00298A1890904F9
:101F200000EBC00101EB0010296801D5490000E079
:101F30008900B0FBF1F06422B0FBF2F109010B095A
:101F40006FF018056B4300EB8300A3891D044FF06D
:101F5000320306D503EBC000B0FBF2F000F007003F
:101F600005E003EB0010B0FBF2F000F00F000843B7
:101F7000208105B030BD4FF41651016000218180F1
:101F8000C18001810C2242818181704710B5028A93
:101F90004FF2FF031A400B884C8823438C88C98872
:101FA0000C4323431343038210BD00210180418071
:101FB0008180C18070470029818902D041F400519D
:101FC00001E021F400518181704710B5C1F3421343
:101FD00001F01F040121A140012B07D0022B07D0E3
:101FE0001430002A026805D00A4304E00C30F8E7F8
:101FF0001030F6E78A43026010BD002A828A01D0C1
:102000000A4300E08A4382827047028A22F00F026C
:102010000282028A0A4302827047828922F40062A5
:10202000828182890A43828170470029818902D096
:1020300041F0020101E021F0020181817047028A32
:1020400022F020020282028A0A430282704700299B
:10205000018A02D041F4804101E021F480410182F3
:102060007047C1F30801818070478088C0F3080081
:102070007047818941F0010181817047028BD2B2A2
:102080000283028B42EA012101837047028B02F432
:102090007F420283028B0A43028370470029818AB0
:1020A00002D041F0200101E021F02001818270473F
:1020B0000029818A02D041F0100101E021F01001D5
:1020C000818270470029818A02D041F0080101E035
:1020D00021F00801818270470029818902D041F4F2
:1020E000004101E0C1F30E01818170470029818A1E
:1020F00002D041F4006101E021F400618182704767
:10210000828A22F004028282828A0A438282704793
:102110000029818A02D041F0020101E021F0020190
:10212000818270470246002012880A4200D00120B6
:102130007047C9430180704770B501F01F05012643
:102140000024C1F3421306FA05F2012B0FD0022B33
:102150000FD0838A4FEA11210088134206FA01F654
:1021600000EA060001D000B10124204670BD838939
:10217000F0E7038AEEE70A0A01219140C943018092
:102180007047000000380140004400400048004013
:10219000004C004000500040F94910B5884202D17F
:1021A0000121C41486E0B0F1804F09D0F54988427E
:1021B0000DD101210220FFF727FE0021022064E05B
:1021C00001210846FFF720FE002101205DE0EE49D5
:1021D000884206D101210420FFF716FE00210420C9
:1021E00053E0EA49884206D101210820FFF70CFE9E
:1021F0000021082049E0E649884206D1012110204B
:10220000FFF702FE002110203FE0E249884206D19C
:1022100001212020FFF7F8FD0021202035E0DE49D4
:10222000884202D10121441444E0DC49884202D1B1
:102230000121CC043EE0DA49884202D101210C059B
:1022400038E0D849884202D101214C0532E0D64914
:10225000884206D101214020FFF7D6FD0021402011
:1022600013E0D249884206D101218020FFF7CCFD3E
:102270000021802009E0CE4988420AD1841501213D
:102280002046FFF7C1FD00212046BDE81040FFF7C2
:10229000BBBDC849884202D101210C040AE0C649ED
:1022A000884202D101214C0404E0C44988420AD189
:1022B00001218C042046FFF79EFD2046BDE810401A
:1022C0000021FFF798BD10BD30B50288AC4CB24D6F
:1022D000A0420DD0A8420BD0B0F1804F08D0A94B3E
:1022E000984205D0A84B984202D0A84B984203D1FF
:1022F00022F070034A881A43A54B984206D0A54B9A
:10230000984203D022F44073CA881A4302808A8814
:1023100082850A880285A0420AD0A84208D0A54A30
:10232000904205D0A44A904202D0A44A904201D1E2
:10233000097A01860121818230BD30B5028C22F0FC
:1023400001020284028C8388048B22F0020224F0B2
:1023500073050C882C430D8915434A882A43884D00
:10236000A8420BD08C4DA84208D0924DA84205D06F
:10237000914DA84202D0914DA8420DD122F00805FE
:102380004A8923F440732A4322F004058A882A43A9
:102390008D891D43CB892B4383800483C988818623
:1023A000028430BD70B5028C22F010020284028CCF
:1023B0008388048B0D8824F4E6464FF6FF7404EA04
:1023C000052535430E8922F0200204EA061616433D
:1023D0004A8804EA02123243694EB04202D06E4E7D
:1023E000B04215D122F080064A8923F4406304EA02
:1023F0000212324322F040068A8804EA0212324373
:102400008E8904EA86061E43CB8904EA830333439C
:1024100083800583C9880187028470BD70B5028CF2
:1024200022F480720284028C8388848B0D8824F0CD
:10243000730425430E894FF6FF7422F4007204EAF8
:10244000062616434A8804EA022232434C4EB04222
:1024500002D0514EB04215D122F400664A8923F4CD
:10246000405304EA0222324322F480668A8804EA56
:10247000022232438E8904EA06161E43CB8904EAFF
:102480000313334383808583C9888187028470BDA9
:1024900070B5028C22F480520284058C8288838B72
:1024A0000C8823F4E6464FF6FF7303EA0424344312
:1024B00025F400560D8903EA053535434E8803EAB5
:1024C00006362E432E4DA84202D0334DA84205D1E8
:1024D00022F480458A8903EA82122A438280848317
:1024E000C988A0F84010068470BD828B22F4406237
:1024F0008283828B4FF6FF7303EA01210A438283B2
:102500007047828B22F00C028283828B0A43828383
:102510007047028B22F440620283028B4FF6FF73F6
:1025200003EA01210A4302837047F0B5048C24F0CA
:1025300010040484078B048C4FF6FF7527F473474F
:1025400005EA03333B4305EA02221A430C4B05EA32
:10255000011698420ED0104B98420BD0B0F1804F2C
:1025600008D0084B984205D0074B984202D0074B41
:10257000984225D124F02001314341F0100124E09C
:10258000002C01400004004000080040000C004006
:10259000001000400014004000340140004C014095
:1025A000005001400054014000180040001C004051
:1025B000002000400040014000440140004801402C
:1025C00024F0A0030B4343F0100102830184F0BD0B
:1025D000028B22F00C020283028B0A4302837047B3
:1025E00070B5048C24F001040484058B048C4FF630
:1025F000FF7606EA0313134325F0F305F84A2B434D
:1026000090420ED0F74A90420BD0B0F1804F08D0E4
:10261000F54A904205D0F54A904202D0F44A9042E1
:1026200002D124F0020201E024F00A020A4342F03F
:1026300001010383018470BD2DE9F84F0D46044666
:102640000888E74FDFF89CC3DFF89C83DFF89C9392
:102650004988AA882B894FF0804A48B304282FD094
:102660004FF6FF760828934632D0208C9E4620F401
:1026700080502084A38B208C06EA0132009223F440
:10268000734306EA0B221A4306EA0E331343BC4295
:102690000AD0644508D0544506D0444504D04C4582
:1026A00002D0D34A944242D120F40050009940E035
:1026B0002046FFF795FFE9882046BDE8F84F87E7F9
:1026C0002046FFF732FFE9882046BDE8F84F20E7B3
:1026D000208C20F480702084B4F81CE0208C06EA62
:1026E000031306EA01222EF0F30E43EA0B0343EA3A
:1026F0000E030092BC420AD0644508D0544506D06F
:10270000444504D04C4502D0B94A944203D120F448
:102710000070009901E020F42060084340F48070CC
:10272000A3832084E9882046BDE8F84FE9E620F439
:102730000240084340F48050A3832084E988204667
:10274000BDE8F84FD1E62DE9F0410C460026498856
:102750000746012501B90226A288012A00D10225D7
:10276000208823890028384610D0FFF7DEFEE18854
:102770003846FFF7CEFE23892A4631463846FFF712
:102780002FFFE1883846BDE8F04121E7FFF728FF39
:10279000E1883846FFF71CFF23892A463146384630
:1027A000FFF7C3FEE1883846BDE8F041B1E610B559
:1027B0000A884B88CC881A438B8823431A430B8999
:1027C0001A434B8989891A430A43A0F8442010BD53
:1027D0004FF6FF71818000210180C180418001722C
:1027E00070470021018041808180C1800181418149
:1027F0008181C18170470021018041800122828056
:10280000C180018170470021018041808180C180A9
:1028100001814181818170470029018802D041F006
:10282000010101E021F0010101807047002930F829
:10283000441F02D041F4004101E0C1F30E010180C8
:102840007047002A828901D00A4300E08A438281CE
:102850007047818270471143A0F848107047002AE2
:10286000828901D00A4300E08A438281704701894E
:1028700021F0070101817047028922F070020A43AA
:102880000281704700B50346FFF7F6FF188940F054
:102890000700188100BD70B516460D466029044634
:1028A0004FF0010231460AD0FFF79AFE2946204632
:1028B000FFF7E2FF208940F00700208170BDFFF79D
:1028C00034FEF3E730B504894FF6FF7505EA0323BC
:1028D0001343E4B20B432343038130BD10B50446D8
:1028E000FFF7F0FF208940F07700208110BD10B580
:1028F0000446FFF7E7FF208940F48040208110BDA7
:10290000018582827047028822F070020A430280A9
:10291000704770B50589048B068C25F007050D43BB
:102920004FF6FC410C4040F201110C434FF6FF7191
:1029300001EA031126F02206114331430581048385
:10294000018470BD028B22F070020A43028370473B
:10295000028B4FF6FF7322F4E04203EA0121114398
:1029600001837047828B22F070020A438283704792
:10297000828B4FF6FF7322F4E04203EA01211143F8
:10298000818370470029018802D041F0800101E075
:1029900021F08001018070470029818802D041F038
:1029A000040101E021F00401818070470029818841
:1029B00002D041F0080101E021F008018180704758
:1029C0000029818802D041F0010101E021F00101DC
:1029D00081807047028B22F008020A43028370470D
:1029E000002C014000340140000400400008004079
:1029F000000C0040028B4FF6FF7322F4006203EAE2
:102A0000012111430183EAE7828B22F008020A4385
:102A10008283E4E7828B4FF6FF7322F4006203EABD
:102A2000012111438183DAE7028B22F004020A4379
:102A30000283D4E7028B4FF6FF7322F4806203EA2D
:102A4000012111430183CAE7828B22F004020A4369
:102A50008283C4E7828B4FF6FF7322F4806203EA1D
:102A6000012111438183BAE7028B22F080020A43DD
:102A70000283B4E7028B4FF6FF73C2F30E0203EA40
:102A8000012111430183AAE7828B22F080020A43CD
:102A90008283A4E7828B4FF6FF73C2F30E0203EA30
:102AA0000121114381839AE7028C22F002020A433A
:102AB000028494E7028C22F008020A4302848EE723
:102AC000028C4FF6FF7322F0200203EA011111433A
:102AD000018484E7028C4FF6FF7322F0800203EA40
:102AE0000111114301847AE7028C4FF6FF7322F43F
:102AF000007203EA01211143018470E7028C4FF652
:102B0000FF7322F4006203EA01211143018466E7A6
:102B1000028C4FF6FF7322F4005203EA0131114395
:102B200001845CE710B50123048C8B409C43048432
:102B3000038C8A401343038410BD10B50423048C16
:102B40008B409C430484038C8A401343038410BD50
:102B500030B50124058C00F118038C40A543058491
:102B600089B108290FD0091FC1F34E00184401682C
:102B700021F4E041016001684FF6FF7303EA02228D
:102B80001143016030BD03EB5100016821F0700179
:102B900001600168F4E70029018802D041F00201D8
:102BA00001E021F00201018019E70029018802D02B
:102BB00041F0040101E021F0040101800FE7002948
:102BC000818802D041F0800101E021F08001818004
:102BD00005E7028822F00802028002880A43028088
:102BE000FDE6828822F07002828082880A43828019
:102BF000F5E6028922F00702028102890A43028176
:102C0000EDE6028922F08002028102890A430281F4
:102C1000E5E68184E3E68185E1E68186DFE60187FA
:102C2000DDE68187DBE6A0F84010D8E6028822F4D2
:102C30004072028002880A430280D0E6808ECEE68F
:102C4000008FCCE6808FCAE6B0F84000C7E6808CE3
:102C5000C5E6008DC3E602460020128A0A4200D073
:102C60000120BCE6C9430182B9E602460020138A6E
:102C700092890B4202EA010202D0002A00D0012010
:102C8000ADE6C9430182AAE6994910B588420AD146
:102C9000841401212046FFF7AEF82046BDE810401D
:102CA0000021FFF7A8B89349884202D101210414FA
:102CB00004E0914988420AD10121C4132046FFF75C
:102CC000A3F82046BDE810400021FFF79DB810BDD5
:102CD00030B502884C8802F441530A88CD882243DB
:102CE0008C882C4322430C8922434C8922438C89B3
:102CF0002243CC8922431A430280828B22F4006251
:102D00008283098A018230BDF0B505460C46022057
:102D10000021AA8B85B001264FF240031A40AA83F6
:102D20002884AF8BA268022A21D0A08800B1022695
:102D30006846FFF703F8E1880098B1F5007F2CD0D2
:102D40007101B0FBF1F000EB8000A1684000B0FB26
:102D5000F1F0401D80B20A21B0FBF1F000F001015A
:102D6000401A4FF6FF72C0F34F0002EA0121821EA3
:102D7000FE2A01D302200021E288084302432A846C
:102D800020886188A2890843A188114308433843F9
:102D900040F40060A88305B0F0BD000AD3E700212D
:102DA000018041808180C180018141818181C18117
:102DB0000721018270470021018041808180C1800C
:102DC00002228260818170470029018802D041F08F
:102DD000400101E021F04001018070470029818B12
:102DE00002D041F4806101E021F480618183704769
:102DF000090901238B40002A828899B201D00A4335
:102E000000E08A4382807047002A828801D00A430A
:102E100000E08A43828070478181704780897047D3
:102E2000A1F57E420188FF3A02D041F4807101E0B1
:102E300021F48071018070470029818802D041F01F
:102E4000040101E021F0040181807047028822F42E
:102E50000062028002880A4302807047018841F4C0
:102E60008051018070470029018802D041F400514F
:102E700001E021F4005101807047012901D0008B4D
:102E80007047808A7047008A7047B1F5804F01888B
:102E900003D021F480410180704741F48041FAE77A
:102EA0000246002012890A4200D001207047C9431F
:102EB0000181704730B501F00F030125024605FA84
:102EC00003F40020A3B2090905FA01F49188A4B221
:102ED000128921401A4202D0002900D0012030BDC1
:102EE00001F00F0201219140C943018170470000A8
:102EF0000030014000380040003C0040FE4910B561
:102F000088424FF0010101D14C0601E04FF080648E
:102F10002046FEF779FF2046BDE810400021FEF76D
:102F200073BF10B50368002223F002030360036837
:102F300043F0010303604FF6FF7300E0521C446846
:102F4000E40701D19A42F9D14268D2073ED08A798A
:102F5000012A02683CD022F080020260CA79012A6C
:102F6000026838D022F0400202600A7A012A026820
:102F700034D022F0200202604A7A012A026830D05E
:102F800022F0100202608A7A012A02682CD022F014
:102F900008020260CA7A012A026828D022F00402DC
:102FA00002608A78CC78920742EA04620C7942EA9D
:102FB00004424C79098842EA0452491E0A43C2611C
:102FC000016821F001010160002114E0002010BD22
:102FD00042F08002C1E742F04002C5E742F0200221
:102FE000C9E742F01002CDE742F00802D1E742F013
:102FF0000402D5E7491C4268D20701D09942F9D1B1
:103000004068C007E2D1012010BDF0B5827ABB4D07
:10301000012191402A6842F001022A60B74E1C3615
:1030200032688A433260B54A047BB54B0C32A4B98E
:1030300014688C4314604488C78844EA0744877A3C
:1030400003EBC707C7F840460488878844EA07446B
:10305000877A03EBC707C7F84446047B012C12D1DB
:1030600014680C431460847A026803EBC4044FEACA
:103070003242C4F84026847A426803EBC4034FEA24
:103080003242C3F844269D4AC37A121D002B1368AE
:1030900006D00B431360994A0389143213B104E03C
:1030A0008B43F7E713688B4313600389012B02D12D
:1030B00013680B431360407B012802D1306808433A
:1030C0003060286820F001002860F0BD0021817187
:1030D000C171017241728172C1728170C17003212C
:1030E00001710221417101210180704783490A6801
:1030F00042F001020A600A6843F60E739A430A60BE
:103100000A6842EA00200860086820F001000860B0
:1031100070470029016802D041F4803101E021F4B8
:103120008031016070470029016813D041F08001AF
:103130000160D0F8841141F48071C0F88411D0F896
:10314000941141F48071C0F89411D0F8A41141F4A5
:10315000807112E021F080010160D0F8841121F427
:103160008071C0F88411D0F8941121F48071C0F8F6
:103170009411D0F8A41121F48071C0F8A411704703
:1031800030B50246002093685B0108D490680001C6
:1031900001D5012003E09068C00044D5022002EB75
:1031A0000012D2F8803103F00103C2F880310B7AAB
:1031B000C3B3D2F880414D681C434B7A43EAC50340
:1031C0001C43C2F880418B7A03F00F038B72D2F854
:1031D000843123F00F03C2F88431D2F884318C7A21
:1031E0002343C2F88431CB7A8C7B0D7B43EA0463A2
:1031F0004C7B240444EA05242343C2F88831CB7B6A
:103200008C7C43EA04634C7C097C240444EA01215D
:103210000B43C2F88C31D2F8801141F00101C2F8A1
:10322000801130BD01E00420FBE7D2F880314C7AF8
:1032300023430C8843EA4453C2F88031C3E7002299
:1032400021B1012905D0022906D112E082682D485A
:1032500001E082682C4802402C49501A8A4214D05E
:103260000ADCA2B16FF0806010180FD002280CD1D8
:103270000FE082682648EEE7B0F5007F09D02549C7
:10328000401803D0B0F5003F03D000207047022063
:1032900070470120704741B101290AD0022903D1AA
:1032A000816841F4000181607047816841F08001CC
:1032B000F9E7816841F40041F5E710B500EB01132F
:1032C000D3F8B04114F004041472D3F8B04144D0E0
:1032D000E4085460D3F8B04104F002045472D3F807
:1032E000B44104F00F049472D3F8B441240AD474A6
:1032F000D3F8B841D4720FE000640040006600408B
:103300000060004003000004000300080001000802
:10331000000003100001FFF7D3F8B841240A14732A
:10332000D3F8B841240C5473D3F8B841240E9473E5
:10333000D3F8BC41D473D3F8BC41240A1474D3F835
:10334000BC41240C5474D3F8BC311B0E937439B1B6
:10335000016941F02001016110BD640D1460B9E7FD
:10336000C16841F02001C16010BD21B1016941F087
:10337000200101617047C16841F02001C1607047C0
:103380000246002029B1012902D1106900F0030092
:103390007047D068FAE700234FF6FF7221B1012988
:1033A00017D0022924D03AE0016821F0020141F04F
:1033B0000101016000E0521E416801F00301012992
:1033C00001D0002AF7D1406800F00300012823D182
:1033D00024E0016821F00301016000E0521E416811
:1033E000890701D0002AF9D14068800714D115E07F
:1033F000016821F0010141F00201016000E0521E6C
:10340000416801F00301022901D0002AF7D1406888
:1034100000F00300022801D0002300E00123184639
:1034200070470268002122F0010242F002020260AD
:10343000406800F00300022800D1012108467047CF
:1034400002684FF6FF71002322F00202026000E0E2
:10345000491E4268920701D50029F9D140688007CA
:1034600000D40123184670478069C0F302100001A0
:1034700070478069000E70478069C0F3074070474D
:10348000002A426901D00A4300E08A434261704742
:103490000246002011F4700F03D0926904E001206D
:1034A0007047CB0104D552680A401103F7D1704729
:1034B0000B0101D59268F7E78B0101D5D268F3E7DC
:1034C0001269F1E7534A914202D1002181617047AC
:1034D000C1F313028B0101D5C26070474B0101D5C6
:1034E00002617047090101D58260704742607047F0
:1034F0000246002053690B424AD0B1F5807F3BD091
:1035000013DC08292ED007DC012926D0022927D078
:1035100004293DD1D0682BE0102925D0202926D0C0
:10352000402935D11069102130E0B1F5004F2BD082
:103530000BDCB1F5007F22D0B1F5806F22D0B1F560
:10354000006F25D19069702120E0B1F5803F11D046
:10355000B1F5003F1CD15068E5E790682E4915E0B1
:10356000D06802E0D068DEE7106903210EE0106940
:1035700008210BE05068FBE79069012106E09069A3
:10358000022103E0906900E05068042100F03BB89C
:10359000704730B5082310240422B1F5007F1DD0F8
:1035A00010DC202929D007DC012921D0042922D0D0
:1035B000082900D1C46034E6402920D0B1F5807FCD
:1035C000F9D10BE00025B1F5004F06D008DCB1F5CC
:1035D000806F03D0B1F5006FEDD18561426020E6C8
:1035E000B1F5803F0DD0B1F5003FE4D1446018E65D
:1035F0000949816015E6C36013E6036111E60461C1
:103600000FE643600DE6024600200A4200D001208A
:10361000704700007000F0300101010000F1080166
:103620004FF0FF32C0E90112C16001610021016069
:10363000704700210161704742684A6093688B605F
:1036400093685960916008610168491C0160704786
:1036500030B50C68621C02D000F1080202E0026979
:1036600004E01A4653681D68A542FAD953684B60B6
:1036700099608A60516008610168491C016030BD31
:10368000D0E9013201699A60D0E901235A604A68A1
:10369000824201D182684A60002202610868401EAD
:1036A000086008687047000070B50D46040025D01A
:1036B00002F08EFDD4E90F20216802FB0011A16009
:1036C0000021A163216861600A46D4E90F01401E10
:1036D00000FB0121E16021464FF0FF3001F8440F6B
:1036E000487004F110008DB1FFF798FF04F1240039
:1036F000FFF794FF02F088FD012070BD502080F399
:103700001188BFF34F8FBFF36F8FFEE72169002948
:10371000F0D001F034FC0028ECD0FB494FF0805091
:103720000860BFF34F8FBFF36F8FE3E72DE9F041E0
:1037300017460E4605000ED005FB06F09EB1B0FB05
:10374000F6F1A9420FD0502080F31188BFF34F8FBC
:10375000BFF36F8FFEE7502080F31188BFF34F8FC8
:10376000BFF36F8FFEE700F15401814207D850206C
:1037700080F31188BFF34F8FBFF36F8FFEE70846CA
:1037800002F094FB04000ED004F154006EB12060EE
:10379000C4E90F5620460121FFF786FF84F85070D8
:1037A00000212046A164BDE8F0812460F0E72DE906
:1037B000F041856B174604460026026C82B1C7B102
:1037C000E06802F076FEE168206C091AE160226888
:1037D000914202D2A168081AE060022F16D017E0C9
:1037E0002068A8B9A06801F0F5FC06460020A0609A
:1037F0000EE0606802F05DFE216C60680844606065
:10380000A168884204D32068606001E005B16D1EA4
:103810006D1CA5633046C6E7F1B500260098846CA0
:103820005CB1A16BE06B81420FD3502080F3118813
:10383000BFF34F8FBFF36F8FFEE7502080F31188E7
:10384000BFF34F8FBFF36F8FFEE7A16B81420ED2A4
:1038500094F94550002269462046FFF7A8FF064626
:10386000681C06D07F2D0FD06D1C84F84550304663
:10387000F8BD606A0028FAD004F1240001F07FFB53
:103880000028F4D00126F2E7502080F31188BFF31E
:103890004F8FBFF36F8FFEE72DE9F041044602F032
:1038A00097FC94F9455004F124060FE0A06C18B180
:1038B0002046FFF7B1FF04E0606A48B1304601F0EE
:1038C0005EFB08B101F02AFC6D1E6DB2002DEDDC2F
:1038D0004FF0FF3684F8456002F096FC02F078FC69
:1038E00094F9445004F1100709E0206948B13846C2
:1038F00001F045FB08B101F011FC6D1E6DB2002D09
:10390000F3DC84F84460BDE8F04102F07DBC2DE9B1
:10391000FF4F83B01F468B4604004FF0000603D0D4
:10392000BBF1000F08D011E0502080F31188BFF3E5
:103930004F8FBFF36F8FFEE7206C38B1502080F3BC
:103940001188BFF34F8FBFF36F8FFEE7022F0AD1AD
:10395000E06B012807D0502080F31188BFF34F8F10
:10396000BFF36F8FFEE701F0E8FBDFF89C914FF0AB
:10397000000A4FF0805848B9059838B1502080F3BC
:103980001188BFF34F8FBFF36F8FFEE702F020FC6B
:10399000A06BE16B884205D3022F03D0059818B3C2
:1039A0002EB328E0A56B3A4659462046FFF7FFFEA6
:1039B000A16C31B1022F00D185B92046FFF72CFF51
:1039C00005E0616A19B104F1240001F0D8FA28B1C8
:1039D000C9F80080BFF34F8FBFF36F8F02F014FC64
:1039E000012007B0BDE8F08F02F00EFC21E0684630
:1039F00001F054FB012602F007FC00F0E4FE02F0A7
:103A0000E7FB94F94400401C01D184F844A094F9E8
:103A10004500401C01D184F845A002F0F5FB05A942
:103A2000684601F041FB30B12046FFF735FF00F05A
:103A30003BFE0020D5E702F0CBFBA06BE16B884298
:103A400001D1012500E0002502F0DEFB95B104F173
:103A50001000059901F041FA2046FFF71DFF00F024
:103A600023FE002892D1C9F80080BFF34F8FBFF327
:103A70006F8F8BE72046FFF70FFF00F015FE85E7FD
:103A800010B5024600210120FFF750FE041E07D0AA
:103A90000021816001600B460A46C160FFF737FFD5
:103AA000204610BD10B5040009D001F043FBA16809
:103AB000884214D1E068401EE06008D00DE050203C
:103AC00080F31188BFF34F8FBFF36F8FFEE70023A2
:103AD0001A4619462046FFF71AFF012010BD0020A4
:103AE00010BD2DE9F3434FF0000583B004002E46CE
:103AF0000CD0206C90B1502080F31188BFF34F8F11
:103B0000BFF36F8FFEE7000004ED00E0502080F36C
:103B10001188BFF34F8FBFF36F8FFEE701F00DFBEE
:103B2000DFF8089900274FF0805848B9049838B159
:103B3000502080F31188BFF34F8FBFF36F8FFEE7E4
:103B400002F046FBA06BC8B1401EA063206810B90C
:103B500001F033FCA060206950B104F1100001F0C5
:103B60000EFA28B1C9F80080BFF34F8FBFF36F8FF3
:103B700002F04AFB012005B0BDE8F083049808B1CB
:103B800065B10FE03EB1502080F31188BFF34F8F35
:103B9000BFF36F8FFEE702F037FB5DE0684601F090
:103BA0007DFA012502F030FB00F00DFE02F010FB63
:103BB00094F94400401C01D184F8447094F9450004
:103BC000401C01D184F8457002F01EFB04A9684630
:103BD00001F06AFA0028204612D0FFF75DFE00F0DF
:103BE00063FD204600F014FC0028A9D09EB302F02B
:103BF000EFFA606A50B3206B0068C0F1200126E044
:103C000000F006FCE0B1206838B902F0E1FAA068E3
:103C100001F09EFA064602F0F7FA04F12400049936
:103C200001F05BF92046FFF737FE00F03DFD00286C
:103C300086D1C9F80080BFF34F8FBFF36F8F7FE746
:103C40002046FFF729FE00F02FFD79E70021A0684C
:103C500001F004FB9FE7FFE700208CE770B50D46FD
:103C6000040009D001F066FAA16888420CD1E0682E
:103C7000401CE060012070BD502080F31188BFF32C
:103C80004F8FBFF36F8FFEE729462046FFF729FFCE
:103C90000028F0D0E168491CE16070BD10B50C4609
:103CA00048B184420FD9502080F31188BFF34F8F61
:103CB000BFF36F8FFEE7502080F31188BFF34F8F63
:103CC000BFF36F8FFEE702220021FFF72FFD0028D0
:103CD00000D0846310BD2DE9F0471F4616468A4682
:103CE000040003D0BAF1000F08D011E0502080F397
:103CF0001188BFF34F8FBFF36F8FFEE7206C38B191
:103D0000502080F31188BFF34F8FBFF36F8FFEE712
:103D1000022F0AD1E06B012807D0502080F31188D0
:103D2000BFF34F8FBFF36F8FFEE702F092FA50217F
:103D3000EFF3118081F31188BFF34F8FBFF36F8FC3
:103D40008046A06BE16B884206D3022F04D000208E
:103D500088F31188BDE8F08794F94550D4F838907D
:103D60003A4651462046FFF722FD681C06D07F2DBB
:103D70001DD06D1C84F845500120E9E7A06C012599
:103D800040B1022F02D1B9F1000FF5D12046FFF763
:103D900043FD06E0606A0028EED004F1240001F043
:103DA000EEF80028E8D0002EE6D03560E4E7502099
:103DB00080F31188BFF34F8FBFF36F8FFEE72DE9BC
:103DC000F0410D46040009D0206C78B1502080F3FA
:103DD0001188BFF34F8FBFF36F8FFEE7502080F342
:103DE0001188BFF34F8FBFF36F8FFEE7206848B98C
:103DF000A06838B1502080F31188BFF34F8FBFF314
:103E00006F8FFEE702F025FA5020EFF3118680F362
:103E10001188BFF34F8FBFF36F8FA16BE06B8842A8
:103E200028D994F94500491CA163411C06D07F287C
:103E300018D0401C84F8450001201CE0A06C01272C
:103E400018B12046FFF7E8FC06E0606A0028F3D0CE
:103E500004F1240001F093F80028EDD0002DEBD000
:103E60002F60E9E7502080F31188BFF34F8FBFF335
:103E70006F8FFEE7002086F3118894E430B4026C63
:103E80000B46002A0BD0C1681144C1608468A1426E
:103E900001D30168C16030BC184602F00ABB30BCD7
:103EA00070472DE9F74783B08A4604004FF00006BB
:103EB00003D0BAF1000F08D011E0502080F3118830
:103EC000BFF34F8FBFF36F8FFEE7206C38B15020E8
:103ED00080F31188BFF34F8FBFF36F8FFEE701F0C0
:103EE0002CF9DFF8489500274FF0805848B905981D
:103EF00038B1502080F31188BFF34F8FBFF36F8F1D
:103F0000FEE702F065F9A56BBDB151462046FFF70B
:103F1000B5FF6D1EA563206950B104F1100001F0DA
:103F20002EF828B1C9F80080BFF34F8FBFF36F8F11
:103F300002F06AF9012006B00CE7059808B11EB13D
:103F400006E002F061F927E0684601F0A7F80126D3
:103F500002F05AF900F037FC02F03AF994F9440003
:103F6000401C01D184F8447094F94500401C01D1F3
:103F700084F8457002F048F905A9684601F094F804
:103F8000002820460AD0FFF787FC00F08DFB204672
:103F900000F03EFA0028B4D00020CCE700F038FA58
:103FA00090B104F12400059900F097FF2046FFF737
:103FB00073FC00F079FB0028A3D1C9F80080BFF39F
:103FC0004F8FBFF36F8F9CE72046FFF765FC00F033
:103FD0006BFB96E72DE9F74382B0894604004FF06A
:103FE000000503D0B9F1000F08D011E0502080F394
:103FF0001188BFF34F8FBFF36F8FFEE7206C38B18E
:10400000502080F31188BFF34F8FBFF36F8FFEE70F
:1040100001F093F8DFF8148400264FF0805748B978
:10402000049838B1502080F31188BFF34F8FBFF34D
:104030006F8FFEE702F0CCF8A06BB0B14946204686
:10404000E568FFF71BFFE560606A50B104F12400EA
:1040500000F095FF28B1C8F80070BFF34F8FBFF391
:104060006F8F02F0D1F8012085E5049808B11DB1E9
:1040700006E002F0C9F827E0684601F00FF80125D4
:1040800002F0C2F800F09FFB02F0A2F894F944009D
:10409000401C01D184F8446094F94500401C01D1D2
:1040A00084F8456002F0B0F804A9684600F0FCFF0F
:1040B000002820460AD0FFF7EFFB00F0F5FA204673
:1040C00000F0A6F90028B5D0002054E500F0A0F9D2
:1040D00090B104F12400049900F0FFFE2046FFF7A0
:1040E000DBFB00F0E1FA0028A4D1C8F80070BFF3B0
:1040F0004F8FBFF36F8F9DE72046FFF7CDFB00F09A
:10410000D3FA97E72DE9F04790468946040003D09B
:10411000B9F1000F08D011E0502080F31188BFF3EF
:104120004F8FBFF36F8FFEE7206C38B1502080F3C4
:104130001188BFF34F8FBFF36F8FFEE702F089F84E
:104140005020EFF3118780F31188BFF34F8FBFF337
:104150006F8FA66B46B394F9445049462046FFF74B
:104160008DFE761EA663681C06D07F2D14D06D1CB4
:1041700084F84450012018E020690028FAD004F1A6
:10418000100000F0FCFE0028F4D0B8F1000FF1D0D0
:104190000121C8F80010EDE7502080F31188BFF32B
:1041A0004F8FBFF36F8FFEE7002087F31188D1E5B3
:1041B0002DE9F0410E46040019D006B3206C40B33F
:1041C00002F047F85020EFF3118580F31188BFF318
:1041D0004F8FBFF36F8FA06B30B131462046E76839
:1041E000FFF74CFE0120E76085F3118845E650207B
:1041F00080F31188BFF34F8FBFF36F8FFEE7006C22
:1042000038B1502080F31188BFF34F8FBFF36F8F09
:10421000FEE7502080F31188BFF34F8FBFF36F8FFD
:10422000FEE710B5040006D001F0D2FFA46B01F048
:10423000EBFF204610BD502080F31188BFF34F8F55
:10424000BFF36F8FFEE710B5040008D001F0C0FF88
:10425000D4E90E10441A01F0D7FF204610BD5020BB
:1042600080F31188BFF34F8FBFF36F8FFEE708B164
:10427000806B7047502080F31188BFF34F8FBFF3DE
:104280006F8FFEE76A4A002102EBC1035B6883423D
:1042900006D1002042F8310002EBC10148607047AE
:1042A000491C0829F0D3704710B5040006D0FFF769
:1042B000E9FF2046BDE8104001F06ABE502080F3BF
:1042C0001188BFF34F8FBFF36F8FFEE7C06C70474D
:1042D000C164704790F85000704718B1806B48B1C6
:1042E00000207047502080F31188BFF34F8FBFF339
:1042F0006F8FFEE70120704728B1816BC06B814250
:1043000009D101207047502080F31188BFF34F8FEF
:10431000BFF36F8FFEE70020704710B5444B0022BB
:1043200053F832401CB1521C082AF9D310BD43F88F
:10433000321003EBC201486010BD10B500243C4AA6
:10434000214602EBC1035B68834202D152F831403F
:1043500002E0491C0829F4D3204610BD70B515466B
:104360000E46044601F034FF94F944100020491C25
:1043700001D184F8440094F94510491C01D184F816
:10438000450001F041FFA06B28B92A46314604F1EF
:10439000240000F0DAFD2046BDE87040FFF77CBA4B
:1043A00000220421FFF7C2B970B50D46044601F0A2
:1043B0000FFFA06C08B9A06B08B1002401E0A56450
:1043C000012401F021FF204670BD10B50446806C29
:1043D000884201D1A06B08B1002010BD01F0F8FEA9
:1043E0000020A06401F010FF012010BD08B50023DB
:1043F0000A4669460093FFF754FD009808BD08B5CA
:1044000000210A4600916946FFF77CFE009808BD2E
:1044100010B5044601F0DCFEA06B20B1002401F0D1
:10442000F3FE204610BD0124F9E7000004ED00E092
:10443000100100202DE9F041054601F0C9FEFA4EB9
:10444000B068401CB0603068F84F10B1706930B38C
:104450002BE03560B068012827D1002404EB8400EC
:1044600007EB8000FFF7DAF8641C202CF6D3F04845
:10447000FFF7D4F8EE481430FFF7D0F8EC482830B6
:10448000FFF7CCF8EA483C30FFF7C8F8E84850306E
:10449000FFF7C4F8E648B0631430F06305E0306815
:1044A000E96AC06A884200D83560706A0121401C00
:1044B00070626864E86A326981401143316100EBDF
:1044C000800007EB8000291DFFF7B6F801F09CFE85
:1044D000706900280CD03068E96AC06A884207D247
:1044E000D4494FF080500860BFF34F8FBFF36F8FF8
:1044F000BDE8F0812DE9FF5F8346DDE90E8799462F
:1045000016468A46900001F0D1FC05001AD05C20C6
:1045100001F0CCFC040012D025630021CDE902415A
:10452000CDE900874B4632465146584601F060F9C6
:104530002046FFF77FFF012004B0BDE8F09F28462A
:1045400001F026FD4FF0FF30F6E770B5044601F0AC
:104550003FFEB54D04B92C68201DFFF791F858B9FE
:10456000E06AB24A00EB800152F8211021B9012122
:104570008140286988432861A06A18B104F11800B5
:10458000FFF77EF8686A401C68622868844208D198
:10459000A748211D3C30FFF74FF86868401C686051
:1045A00007E0A868401EA860204601F08BF901F0E2
:1045B0007DF901F029FE6869002814D0286884423A
:1045C00011D1686B38B1502080F31188BFF34F8F41
:1045D000BFF36F8FFEE797494FF080500860BFF33D
:1045E0004F8FBFF36F8F70BD2DE9F0418E4F0026C6
:1045F000786B20B1B869401CB861304678E7FD6837
:104600006D1CFD6013D1B86B006838B1502080F389
:104610001188BFF34F8FBFF36F8FFEE7B86BF96B55
:10462000B963F863386A401C386201F03FF9B86A30
:10463000DFF8F881854209D3B86B0068A0B1B86B88
:10464000C068C4686068854211D2B8623868C06AC0
:1046500000EB800158F82100012800D90126F869F3
:104660000028CAD00126C8E74FF0FF30EDE7201D33
:10467000FFF706F8A06A18B104F11800FFF700F878
:10468000E06A01213A6981401143396100EB800100
:1046900008EB8100211DFEF7CFFFE06A3968C96A87
:1046A0008842C9D30126C7E72DE9F0475E4D0024B3
:1046B0002746686B38B101F08BFD686B401E68635C
:1046C000686B40B147E0502080F31188BFF34F8FF3
:1046D000BFF36F8FFEE7A868554928310126D0B394
:1046E000DFF848918846D8F80010E9B1D8F80C00F6
:1046F000C46804F11800FEF7C3FF201DFEF7C0FFD9
:10470000E06A2A6906FA00F11143296100EB800191
:1047100009EB8100211DFEF78FFFE06A2968C96A55
:104720008842E0D3EE61DEE70CB101F0BFF8AC697E
:104730003CB1FFF759FF00B1EE61641EF9D10020D2
:10474000A861E86938B13B49012738070860BFF321
:104750004F8FBFF36F8F01F057FD3846BDE8F087EC
:104760002DE9F041304E0F460446F5683068001DD3
:10477000FEF786FF38B9306890F82C100120884089
:10478000316981433161601C08D13FB13168BDE8B6
:10479000F04127485030091DFEF74EBF30682C44C9
:1047A000AC424460316805D2F06BBDE8F041091DB0
:1047B000FEF74EBFB06B091DFEF74AFFB06A844298
:1047C00000D2B46294E61848416B491C41637047BB
:1047D00070B50D4603004FF000040BD095B1124A9E
:1047E000506BB8B1502080F31188BFF34F8FBFF3E7
:1047F0006F8FFEE7502080F31188BFF34F8FBFF318
:104800006F8FFEE7502080F31188BFF34F8FBFF307
:104810006F8FFEE7FFF7D7FFD26818684119904203
:104820000AD988420AD80CE040000020500100203C
:10483000D003002004ED00E0884201D8914200D965
:10484000012419601CB1881A0021FFF789FFFFF7C6
:104850002BFF38B9F9494FF080500860BFF34F8FF4
:10486000BFF36F8F204670BD10B5020014D0F4481E
:10487000406B38B1502080F31188BFF34F8FBFF3E6
:104880006F8FFEE7FFF79FFF00211046FFF768FFDD
:10489000FFF70AFF002807D1E8494FF08050086071
:1048A000BFF34F8FBFF36F8F10BD2DE9F0410400B0
:1048B00005D0E34E3068844209D1002018E650202C
:1048C00080F31188BFF34F8FBFF36F8FFEE701F0C6
:1048D0007FFC6569B76BF66B01F096FCBD4201D0B9
:1048E000B54201D1022003E6D64885420DD1A06A27
:1048F0000028F7D103200021621892F85820012ADD
:10490000F0D0491C0129F7DBF2E5CE481438854286
:1049100002D00DB10120EBE50420E9E510B5044615
:1049200001F056FC0CB9C6480468E46A01F06CFC5E
:10493000204610BD10B5044601F08BFC5020EFF36B
:10494000118180F31188BFF34F8FBFF36F8F0CB9C4
:10495000BB480468E06A81F3118810BD2DE9F0417D
:1049600000260D460446202907D3502080F31188E5
:10497000BFF34F8FBFF36F8FFEE701F029FCB04FFD
:1049800004B93C68E06CA8423FD03968854206D93A
:104990008C4207D03968C96AA94202D902E08C4228
:1049A00000D10126E16A8846884200D1E562E564CB
:1049B000A069002802DBC5F12000A061A24D08EB30
:1049C0008800616905EB8000814215D1201DFEF74A
:1049D00057FE012120B93A6901FA08F082433A6191
:1049E000E06A3A6981401143396100EB800005EBD0
:1049F0008000211DFEF720FE3EB190494FF080500F
:104A00000860BFF34F8FBFF36F8FBDE8F04101F037
:104A1000FBBB8B4A506B10B10120D0617047002066
:104A2000D06110698849B0FA80F0C0F11F0000EB36
:104A3000800051F820306BB101EB800000F10803D9
:104A4000416849684160994201D149684160C8683C
:104A500010607047502080F31188BFF34F8FBFF371
:104A60006F8FFEE770B5044601F0B2FB744D04B9D8
:104A70002C68201DFEF704FE58B9E06A724900EB6D
:104A8000800251F8221021B9012181402869884310
:104A90002861A06A18B104F11800FEF7F1FD211D8C
:104AA0006848FEF7C9FD00200646211891F85820F5
:104AB000012A01D181F85860401C0128F5DB01F082
:104AC000A3FB686928B101F083FB00F0EFFE01F061
:104AD0009BFB2868844213D1686990B1686B38B138
:104AE000502080F31188BFF34F8FBFF36F8FFEE725
:104AF00052494FF080500860BFF34F8FBFF36F8F64
:104B000070BD50480068A968884201D12E6070BD10
:104B1000BDE870407DE7002150B14A4B42699A429E
:104B20000FD1806AA3F1280290420AD040B108E078
:104B3000502080F31188BFF34F8FBFF36F8FFEE7D4
:104B400001210846704770B504002BD03C4D286801
:104B500084422FD001F03CFB2046FFF7DCFFE8B198
:104B6000201DFEF78DFDE06A01212A698140114375
:104B70002961354900EB800001EB8000211DFEF723
:104B80005BFDE06A2968C96A884207D32B494FF068
:104B900080500860BFF34F8FBFF36F8FBDE8704048
:104BA00001F032BB502080F31188BFF34F8FBFF369
:104BB0006F8FFEE770BD2DE9F0410027040016D08D
:104BC00001F047FB5020EFF3118680F31188BFF30B
:104BD0004F8FBFF36F8F2046FFF79DFF50B3184DE7
:104BE000686B60B1174804F11801283820E05020A4
:104BF00080F31188BFF34F8FBFF36F8FFEE7E06A3A
:104C000029684FF00108C96A884202D30127C5F814
:104C10001C80201DFEF734FDE06A2A6908FA00F1C5
:104C200011432961084900EB800001EB8000211D40
:104C3000FEF702FD86F31188384659E404ED00E0E2
:104C4000400000202004002050010020F84EF94DC3
:104C5000A6F52F774FF08058DFF8DC9311E001F0D4
:104C6000B7FAF068C468201DFEF70AFDA868401E68
:104C7000A8606868401E686001F0C6FA204600F02F
:104C800021FE68680028EAD138680128F9D9C9F8F6
:104C90000080BFF34F8FBFF36F8FF2E77CB5E5481D
:104CA00000252C30CDE900502B468222E3A1E548B7
:104CB000FFF720FCDF4C012803D100F004FF01289E
:104CC00002D0401C11D00EE0502080F31188BFF3B9
:104CD0004F8FBFF36F8F4FF0FF30A06201206061F4
:104CE000E56001F019FA206B7CBD502080F311883B
:104CF000BFF34F8FBFF36F8FFEE7502080F3118813
:104D0000BFF34F8FBFF36F8FCA490020486101F096
:104D100051BAC848C068704710B501F09AFAC54842
:104D2000C06810BDC3488068704708B9C1480068B2
:104D300008B134307047502080F31188BFF34F8F93
:104D4000BFF36F8FFEE72DE9F0410C46B9491746D6
:104D5000A8B1054605F13400C4E90050E86A2061B5
:104D6000286BE061686CA0600026E86CC4E9050669
:104D7000052B12D00868854203D1267311E00D6817
:104D8000E8E72373032B0CD1FFF71DFDA86A08B1D8
:104D900002202073FFF788FC03E02846FFF785FD1B
:104DA000207357B10021286B01E0401C491C027898
:104DB000A52AFAD08808208420E426841EE42DE960
:104DC000F0478146086892460C460025F8B14868CD
:104DD00001F1080640684860B04201D1406848606F
:104DE000D0F80C80606842686260B24201D15168BC
:104DF0006160606805EBC50109EB8101C768534636
:104E000001223846FFF79FFF6D1C4745EAD128462F
:104E1000A4E42DE9F04717460A460646002420255B
:104E2000FFF7D1FCDFF80C82D8F8080082423AD3B1
:104E3000DFF814926D1E05EB850104EBC40009EB4D
:104E4000810106EB80000122FFF7B9FF0444002D29
:104E5000F0D104EBC40006EB800002224546D8F8EE
:104E60003810FFF7ACFF044404EBC40006EB8000ED
:104E70000222E96BFFF7A3FF044404EBC40006EB36
:104E8000800004226A49FFF79AFF0444684904EB52
:104E9000C40006EB800003221431FFF790FF0444A6
:104EA0000FB100203860FFF7FFFB204656E4614A4F
:104EB00010B5516B034639B1502080F31188BFF310
:104EC0004F8FBFF36F8FFEE7FFF77DFC9169C81826
:104ED0009061BDE81040FFF7E7BB10B50C4648B144
:104EE000544909681831FEF7B3FB2046BDE810406D
:104EF000012135E4502080F31188BFF34F8FBFF3B9
:104F00006F8FFEE710B5144678B14A4B5A6BA2B1C9
:104F10001A6841F00041916119681831FEF78CFB65
:104F20002046BDE8104001211AE4502080F311888A
:104F3000BFF34F8FBFF36F8FFEE7502080F31188D0
:104F4000BFF34F8FBFF36F8FFEE770B514460D466A
:104F500068B1384909681831FEF76EFB0CB14FF0A3
:104F6000FF3521462846BDE87040FFF7F9BB5020C9
:104F700080F31188BFF34F8FBFF36F8FFEE72DE9EA
:104F8000F041C068C468ACB104F118000746FEF7F0
:104F900077FB284D686B0126A0B1254839461438A7
:104FA000FEF74AFBE06A2968C96A88421AD90120DB
:104FB000EE6107E4502080F31188BFF34F8FBFF3F9
:104FC0006F8FFEE7201DFEF75BFBE06A2A6906FA99
:104FD00000F1114329611C4900EB800001EB8000C6
:104FE000211DDDE7002069E470B5124D6A6B6AB3DC
:104FF00041F000410160C4684CB3FEF741FB201D45
:10500000FEF73EFBE06A01262A6906FA00F1114329
:1050100029610D4900EB800001EB8000211DFEF7A6
:105020000BFBE06A2968C96A884200D9EE6170BD4D
:105030000C0400204000002004ED00E049444C45F1
:10504000000000004D4C00085001002000E007E087
:10505000502080F31188BFF34F8FBFF36F8FFEE7AF
:10506000502080F31188BFF34F8FBFF36F8FFEE79F
:1050700010B504000AD001F0ABF8F848016A2160CD
:10508000C0686060BDE8104001F0BEB8502080F3F9
:105090001188BFF34F8FBFF36F8FFEE7EF490A6AA6
:1050A0000260C968416070472DE9F0410C46050077
:1050B00014D0DCB101F08CF8E84EF1686B6822681E
:1050C000C81A571C1AD02F68D6F820C0002667458A
:1050D00016D08B4214D8012526601BE0502080F3A7
:1050E0001188BFF34F8FBFF36F8FFEE7502080F31F
:1050F0001188BFF34F8FBFF36F8FFEE7002509E0E4
:10510000824205D9101A20602846FFF7C7FFF5E74D
:105110000125266001F078F828468EE5CF49012068
:10512000C8617047002800D0806C7047002800D00C
:1051300081647047C94800687047C848416919B11F
:10514000406B18B100207047012070470220704763
:1051500070B504004FF0000035D0C04DE16A2A68F8
:10516000D26A914230D2A069002804DB2868C06A64
:10517000C0F12000A061E06AB94E00EB80006169D7
:1051800006EB800081421AD1201DFEF779FA012139
:1051900030B994F82C002A6901FA00F082432A61A0
:1051A0002868C06AE0622A6981401143296100EBE6
:1051B000800006EB8000211DFEF73EFA02E0286821
:1051C000C06AE062012032E7E16C2A68D26A91424B
:1051D000F8D32CE770B504004FF000003DD09F4D90
:1051E00029688C4207D0502080F31188BFF34F8F7D
:1051F000BFF36F8FFEE7216D69B1491E2165E36C36
:10520000E26A9A4229D0002927D1201DFEF738FAF8
:10521000012140B10EE0502080F31188BFF34F8F81
:10522000BFF36F8FFEE794F82C002A6901FA00F0B3
:1052300082432A61E06CE062C0F12000A061E06A74
:105240002A69814011432961854900EB800001EB07
:105250008000211DFEF7F0F90120E8E670B50B464D
:10526000040047D0226DA2B1E16C994200D21946E8
:10527000E06A88423ED0012A3CD1784D2A689442A7
:105280000FD1502080F31188BFF34F8FBFF36F8F82
:10529000FEE7502080F31188BFF34F8FBFF36F8F6D
:1052A000FEE7E162A269002A02DBC1F12001A161EF
:1052B0006B4E00EB8000616906EB8000814219D1E2
:1052C000201DFEF7DDF9012130B994F82C002A6980
:1052D00001FA00F082432A61E06A2A6981401143A1
:1052E000296100EB800006EB8000211DBDE87040C5
:1052F000FEF7A2B99BE62DE9FC474FF0000A0646EF
:1053000080F800A055488468806800EBC0008000E9
:1053100000F0CCFD5FEA000843D000222146FFF7F1
:1053200078FD8146002735E007EBC70108EB8105D2
:10533000287B05280ED2DFE800F0030507090B00E3
:10534000582408E0522406E0422404E0532402E0FA
:10535000442400E000243046696801F067F83046D4
:1053600001F088F8202101E03154401C0F28FBD3C4
:1053700006F800A00644A968288CCDE90001224661
:1053800038A130462B6900F0A3FF304601F072F8D7
:1053900006447F1C4F45C7D34046BDE8FC4700F09C
:1053A000F7BDBDE8FC872D4908680A688069D26AA4
:1053B0000968C2F120028A6170472849086818B15B
:1053C0000868026D521C02650868704770B5144683
:1053D0000E4638B1502080F31188BFF34F8FBFF3D2
:1053E0006F8FFEE700F0F4FE1C4D2868406D78B921
:1053F0002868012180F8581054B12046FFF7B0F911
:105400001C494FF080500860BFF34F8FBFF36F8F80
:1054100000F0FAFE00F0DCFE2868446D002034B194
:1054200016B12968486502E02A68611E516529683D
:1054300081F8580000F0E8FE2046F8E52DE9F0413B
:105440001D46069E90460F46B0B1502080F311884D
:10545000BFF34F8FBFF36F8FFEE7000040000020C7
:105460005001002009256309257509257509257551
:105470000D0A000004ED00E000F0AAFEFE4C2068DA
:1054800090F85800022813D02068416DB943416557
:105490002068012180F8581056B13046FFF760F9B6
:1054A000F6494FF080500860BFF34F8FBFF36F8F06
:1054B00000F0AAFE00F08CFE15B12068406D286057
:1054C000206890F85800022801D0002505E02068E7
:1054D000416D21EA0801416501252168002081F81C
:1054E000580000F091FE284666E42DE9F041984608
:1054F000069F1546012639B1502080F31188BFF36D
:105500004F8FBFF36F8FFEE798B1044600F060FE47
:105510000FB1606D386094F85800022184F858107B
:10552000D54FB8F1050F19D2DFE808F0220B0E14A1
:105530001200502080F31188BFF34F8FBFF36F8F9D
:10554000FEE7616D294301E0616D491C61650FE073
:10555000022801D065650BE0002633E0F96839B117
:10556000502080F31188BFF34F8FBFF36F8FFEE79A
:10557000012827D1201DFEF783F8E06A01213A694E
:10558000814011433961BE4900EB800001EB80008E
:10559000211DFEF751F8A06A38B1502080F3118820
:1055A000BFF34F8FBFF36F8FFEE7E06A3968C96AB8
:1055B000884207D9B1494FF080500860BFF34F8F40
:1055C000BFF36F8F00F020FE3046F2E42DE9F04784
:1055D0009A46DDE90869154604004FF0010808D035
:1055E00079B1502080F31188BFF34F8FBFF36F8FD5
:1055F000FEE7502080F31188BFF34F8FBFF36F8F0A
:10560000FEE700F026FE5020EFF3118780F31188AB
:10561000BFF34F8FBFF36F8F0EB1606D306094F8A2
:105620005800022184F85810934EBAF1050F12D297
:10563000DFE80AF01B03060C0A00616D294301E054
:10564000616D491C616510E0022801D065650CE0C0
:105650004FF0000828E0F16839B1502080F311883C
:10566000BFF34F8FBFF36F8FFEE701281CD1A06AF5
:1056700038B1502080F31188BFF34F8FBFF36F8F85
:10568000FEE7706B0125A0B104F118017D48FDF71C
:10569000D3FFE06A3168C96A884205D9B9F1000FC1
:1056A00001D0C9F80050F56187F311884046BDE884
:1056B000F087201DFDF7E4FFE06A326905FA00F18A
:1056C000114331616E4900EB800001EB8000211D28
:1056D000DDE72DE9F0419046040008D079B1502073
:1056E00080F31188BFF34F8FBFF36F8FFEE7502019
:1056F00080F31188BFF34F8FBFF36F8FFEE700F089
:10570000A8FD5020EFF3118780F31188BFF34F8F6E
:10571000BFF36F8F94F85800022184F85810616D20
:10572000491C616501281DD1A06A38B1502080F361
:105730001188BFF34F8FBFF36F8FFEE74E4D686B3D
:10574000012690B104F118014E48FDF775FFE06A9B
:105750002968C96A884205D9B8F1000F01D0C8F894
:105760000060EE6187F3118823E4201DFDF788FFB8
:10577000E06A2A6906FA00F111432961404900EB09
:10578000800001EB8000211DDFE710B539B150200A
:1057900080F31188BFF34F8FBFF36F8FFEE758B1CF
:1057A000044600F015FD94F85800022807D00024A4
:1057B00000F02AFD204610BD2F480468F1E70020C4
:1057C00084F858000124F3E770B515460E4660B121
:1057D000044600F0FDFC04EB86014C6D486DA843C7
:1057E000486500F011FD204621E423480468F0E7F5
:1057F0002DE9F05F0E46DDE90B94174683469100D4
:105800009A460A9DA522206B00F098FE6FF00301D6
:10581000206B01EB8701084420F00707780707D0C9
:10582000502080F31188BFF34F8FBFF36F8FFEE7D7
:105830004FF0000866B100202218315C82F8341065
:10584000315C11B1401C1028F6D384F8438001E08C
:1058500084F83480202D00D31F25E562C4E9135855
:10586000201DFDF7E6FE04F11800FDF7E2FE2461BD
:10587000C5F12000646207E04000002004ED00E074
:1058800050010020F8030020A061C4F8548084F87F
:10589000588052465946384600F01EFC2060B9F147
:1058A000000F01D0C9F80040BDE8F09F0A48816BA5
:1058B000096821B1816BC9680968816270474FF03E
:1058C000FF31FAE710B50446006B00F061FB20469B
:1058D000BDE8104000F05CBB4000002070B5002423
:1058E0004160F74D0061914206D8D11A8269914218
:1058F00006D2011D286907E09A4203D2994201D3DA
:10590000012403E0011DE868FDF7A2FE204670BDFA
:105910002DE9FF411F4603000A9E4FF0000015D0FD
:10592000E74D2C68002C0ED08DE80E00062917DA02
:10593000FFF703FC02284FF000030FD00022694656
:105940002868FDF7E4FF04B0BDE8F081502080F343
:105950001188BFF34F8FBFF36F8FFEE73246EEE73C
:1059600000233A4669462046FEF7B5F9EBE730B525
:1059700087B0D34D6EE00198002806DADDE9030117
:10598000029A90470198002864DB039C606910B17B
:10599000201DFDF775FE05A800F0BEF9024601982E
:1059A0000A2857D2DFE800F00505052D334A050522
:1059B0002D3394F8280040F0010084F82800029864
:1059C000A169034601442046FFF788FF68B3216AB6
:1059D0002046884794F8280040073BD500200090D7
:1059E0000298A1690023421819462046FFF790FF4C
:1059F000D8B9502080F31188BFF34F8FBFF36F8F5A
:105A0000FEE714F8280F20F00100207022E094F83F
:105A1000280040F0010084F828000298A06128B115
:105A2000811813462046FFF759FF13E0502080F3FA
:105A30001188BFF34F8FBFF36F8FFEE794F82800F4
:105A4000810703D4204600F0A3FA03E020F0010010
:105A500084F82800002201A92868FEF722FA00280D
:105A600089D107B030BD964CE068016839B100219A
:105A700039B1002000F062F9FFF779FFF4E7012166
:105A8000F6E7C0680068F5E710B500F0A1FB8C4CA4
:105A90002068A0B98B48FDF7C1FD8A481430FDF796
:105AA000BDFD8848E06014302061002210210520EF
:105AB000FDF73CFE206010B183A1FEF72EFCBDE88F
:105AC000104000F0A1BB1CB5FFF7DEFF7C4800686A
:105AD00068B17B491F20091DCDE9000100234FF467
